{
  "_format": "hh-sol-artifact-1",
  "contractName": "MemeMarketplace",
  "sourceName": "contracts/MemeMarketplace.sol",
  "abi": [
    {
      "inputs": [
        {
          "internalType": "address",
          "name": "_memeNFT",
          "type": "address"
        }
      ],
      "stateMutability": "nonpayable",
      "type": "constructor"
    },
    {
      "anonymous": false,
      "inputs": [
        {
          "indexed": true,
          "internalType": "uint256",
          "name": "tokenId",
          "type": "uint256"
        },
        {
          "indexed": true,
          "internalType": "address",
          "name": "seller",
          "type": "address"
        },
        {
          "indexed": false,
          "internalType": "uint256",
          "name": "startingPrice",
          "type": "uint256"
        },
        {
          "indexed": false,
          "internalType": "uint256",
          "name": "endTime",
          "type": "uint256"
        }
      ],
      "name": "AuctionCreated",
      "type": "event"
    },
    {
      "anonymous": false,
      "inputs": [
        {
          "indexed": true,
          "internalType": "uint256",
          "name": "tokenId",
          "type": "uint256"
        },
        {
          "indexed": true,
          "internalType": "address",
          "name": "winner",
          "type": "address"
        },
        {
          "indexed": false,
          "internalType": "uint256",
          "name": "amount",
          "type": "uint256"
        }
      ],
      "name": "AuctionEnded",
      "type": "event"
    },
    {
      "anonymous": false,
      "inputs": [
        {
          "indexed": true,
          "internalType": "uint256",
          "name": "tokenId",
          "type": "uint256"
        },
        {
          "indexed": true,
          "internalType": "address",
          "name": "bidder",
          "type": "address"
        },
        {
          "indexed": false,
          "internalType": "uint256",
          "name": "amount",
          "type": "uint256"
        }
      ],
      "name": "BidPlaced",
      "type": "event"
    },
    {
      "anonymous": false,
      "inputs": [
        {
          "indexed": true,
          "internalType": "uint256",
          "name": "tokenId",
          "type": "uint256"
        },
        {
          "indexed": true,
          "internalType": "address",
          "name": "seller",
          "type": "address"
        },
        {
          "indexed": false,
          "internalType": "uint256",
          "name": "price",
          "type": "uint256"
        }
      ],
      "name": "ItemListed",
      "type": "event"
    },
    {
      "anonymous": false,
      "inputs": [
        {
          "indexed": true,
          "internalType": "uint256",
          "name": "tokenId",
          "type": "uint256"
        },
        {
          "indexed": true,
          "internalType": "address",
          "name": "buyer",
          "type": "address"
        },
        {
          "indexed": true,
          "internalType": "address",
          "name": "seller",
          "type": "address"
        },
        {
          "indexed": false,
          "internalType": "uint256",
          "name": "price",
          "type": "uint256"
        }
      ],
      "name": "ItemSold",
      "type": "event"
    },
    {
      "anonymous": false,
      "inputs": [
        {
          "indexed": true,
          "internalType": "uint256",
          "name": "tokenId",
          "type": "uint256"
        },
        {
          "indexed": true,
          "internalType": "address",
          "name": "seller",
          "type": "address"
        }
      ],
      "name": "ListingCancelled",
      "type": "event"
    },
    {
      "anonymous": false,
      "inputs": [
        {
          "indexed": true,
          "internalType": "address",
          "name": "previousOwner",
          "type": "address"
        },
        {
          "indexed": true,
          "internalType": "address",
          "name": "newOwner",
          "type": "address"
        }
      ],
      "name": "OwnershipTransferred",
      "type": "event"
    },
    {
      "inputs": [],
      "name": "MAX_FEE",
      "outputs": [
        {
          "internalType": "uint256",
          "name": "",
          "type": "uint256"
        }
      ],
      "stateMutability": "view",
      "type": "function"
    },
    {
      "inputs": [
        {
          "internalType": "uint256",
          "name": "",
          "type": "uint256"
        }
      ],
      "name": "auctions",
      "outputs": [
        {
          "internalType": "uint256",
          "name": "tokenId",
          "type": "uint256"
        },
        {
          "internalType": "address",
          "name": "seller",
          "type": "address"
        },
        {
          "internalType": "uint256",
          "name": "startingPrice",
          "type": "uint256"
        },
        {
          "internalType": "uint256",
          "name": "currentBid",
          "type": "uint256"
        },
        {
          "internalType": "address",
          "name": "currentBidder",
          "type": "address"
        },
        {
          "internalType": "uint256",
          "name": "endTime",
          "type": "uint256"
        },
        {
          "internalType": "bool",
          "name": "active",
          "type": "bool"
        }
      ],
      "stateMutability": "view",
      "type": "function"
    },
    {
      "inputs": [
        {
          "internalType": "uint256",
          "name": "tokenId",
          "type": "uint256"
        }
      ],
      "name": "buyItem",
      "outputs": [],
      "stateMutability": "payable",
      "type": "function"
    },
    {
      "inputs": [
        {
          "internalType": "uint256",
          "name": "tokenId",
          "type": "uint256"
        }
      ],
      "name": "cancelListing",
      "outputs": [],
      "stateMutability": "nonpayable",
      "type": "function"
    },
    {
      "inputs": [
        {
          "internalType": "uint256",
          "name": "tokenId",
          "type": "uint256"
        },
        {
          "internalType": "uint256",
          "name": "startingPrice",
          "type": "uint256"
        },
        {
          "internalType": "uint256",
          "name": "duration",
          "type": "uint256"
        }
      ],
      "name": "createAuction",
      "outputs": [],
      "stateMutability": "nonpayable",
      "type": "function"
    },
    {
      "inputs": [
        {
          "internalType": "uint256",
          "name": "tokenId",
          "type": "uint256"
        }
      ],
      "name": "endAuction",
      "outputs": [],
      "stateMutability": "nonpayable",
      "type": "function"
    },
    {
      "inputs": [
        {
          "internalType": "uint256",
          "name": "tokenId",
          "type": "uint256"
        }
      ],
      "name": "getActiveAuction",
      "outputs": [
        {
          "components": [
            {
              "internalType": "uint256",
              "name": "tokenId",
              "type": "uint256"
            },
            {
              "internalType": "address",
              "name": "seller",
              "type": "address"
            },
            {
              "internalType": "uint256",
              "name": "startingPrice",
              "type": "uint256"
            },
            {
              "internalType": "uint256",
              "name": "currentBid",
              "type": "uint256"
            },
            {
              "internalType": "address",
              "name": "currentBidder",
              "type": "address"
            },
            {
              "internalType": "uint256",
              "name": "endTime",
              "type": "uint256"
            },
            {
              "internalType": "bool",
              "name": "active",
              "type": "bool"
            }
          ],
          "internalType": "struct MemeMarketplace.Auction",
          "name": "",
          "type": "tuple"
        }
      ],
      "stateMutability": "view",
      "type": "function"
    },
    {
      "inputs": [
        {
          "internalType": "uint256",
          "name": "tokenId",
          "type": "uint256"
        }
      ],
      "name": "getActiveListing",
      "outputs": [
        {
          "components": [
            {
              "internalType": "uint256",
              "name": "tokenId",
              "type": "uint256"
            },
            {
              "internalType": "address",
              "name": "seller",
              "type": "address"
            },
            {
              "internalType": "uint256",
              "name": "price",
              "type": "uint256"
            },
            {
              "internalType": "bool",
              "name": "active",
              "type": "bool"
            },
            {
              "internalType": "uint256",
              "name": "listedAt",
              "type": "uint256"
            }
          ],
          "internalType": "struct MemeMarketplace.Listing",
          "name": "",
          "type": "tuple"
        }
      ],
      "stateMutability": "view",
      "type": "function"
    },
    {
      "inputs": [
        {
          "internalType": "uint256",
          "name": "tokenId",
          "type": "uint256"
        },
        {
          "internalType": "uint256",
          "name": "price",
          "type": "uint256"
        }
      ],
      "name": "listItem",
      "outputs": [],
      "stateMutability": "nonpayable",
      "type": "function"
    },
    {
      "inputs": [
        {
          "internalType": "uint256",
          "name": "",
          "type": "uint256"
        }
      ],
      "name": "listings",
      "outputs": [
        {
          "internalType": "uint256",
          "name": "tokenId",
          "type": "uint256"
        },
        {
          "internalType": "address",
          "name": "seller",
          "type": "address"
        },
        {
          "internalType": "uint256",
          "name": "price",
          "type": "uint256"
        },
        {
          "internalType": "bool",
          "name": "active",
          "type": "bool"
        },
        {
          "internalType": "uint256",
          "name": "listedAt",
          "type": "uint256"
        }
      ],
      "stateMutability": "view",
      "type": "function"
    },
    {
      "inputs": [],
      "name": "marketplaceFee",
      "outputs": [
        {
          "internalType": "uint256",
          "name": "",
          "type": "uint256"
        }
      ],
      "stateMutability": "view",
      "type": "function"
    },
    {
      "inputs": [],
      "name": "memeNFT",
      "outputs": [
        {
          "internalType": "contract MemeNFT",
          "name": "",
          "type": "address"
        }
      ],
      "stateMutability": "view",
      "type": "function"
    },
    {
      "inputs": [],
      "name": "owner",
      "outputs": [
        {
          "internalType": "address",
          "name": "",
          "type": "address"
        }
      ],
      "stateMutability": "view",
      "type": "function"
    },
    {
      "inputs": [
        {
          "internalType": "address",
          "name": "",
          "type": "address"
        }
      ],
      "name": "pendingWithdrawals",
      "outputs": [
        {
          "internalType": "uint256",
          "name": "",
          "type": "uint256"
        }
      ],
      "stateMutability": "view",
      "type": "function"
    },
    {
      "inputs": [
        {
          "internalType": "uint256",
          "name": "tokenId",
          "type": "uint256"
        }
      ],
      "name": "placeBid",
      "outputs": [],
      "stateMutability": "payable",
      "type": "function"
    },
    {
      "inputs": [],
      "name": "renounceOwnership",
      "outputs": [],
      "stateMutability": "nonpayable",
      "type": "function"
    },
    {
      "inputs": [
        {
          "internalType": "uint256",
          "name": "_fee",
          "type": "uint256"
        }
      ],
      "name": "setMarketplaceFee",
      "outputs": [],
      "stateMutability": "nonpayable",
      "type": "function"
    },
    {
      "inputs": [
        {
          "internalType": "address",
          "name": "newOwner",
          "type": "address"
        }
      ],
      "name": "transferOwnership",
      "outputs": [],
      "stateMutability": "nonpayable",
      "type": "function"
    },
    {
      "inputs": [],
      "name": "withdraw",
      "outputs": [],
      "stateMutability": "nonpayable",
      "type": "function"
    }
  ],
  "bytecode": "0x608060405260fa60065534801561001557600080fd5b5060405162001d8538038062001d85833981016040819052610036916100bb565b600160005561004433610069565b600280546001600160a01b0319166001600160a01b03929092169190911790556100eb565b600180546001600160a01b038381166001600160a01b0319831681179093556040519116919082907f8be0079c531659141344cd1fd0a4f28419497f9722a3daafe3b4186f6b6457e090600090a35050565b6000602082840312156100cd57600080fd5b81516001600160a01b03811681146100e457600080fd5b9392505050565b611c8a80620000fb6000396000f3fe6080604052600436106101145760003560e01c80638da5cb5b116100a0578063cda4beef11610064578063cda4beef1461040c578063de74e57b1461042c578063e7fb74c7146104b9578063f2fde38b146104cc578063f3f43703146104ec57600080fd5b80638da5cb5b146103855780639407ea98146103a35780639979ef45146103c3578063b9a2de3a146103d6578063bc063e1a146103f657600080fd5b8063571a26a0116100e7578063571a26a0146101f957806361b1e45f146102a65780636a1669641461032c578063715018a614610350578063883efa671461036557600080fd5b80631030f05f1461011957806310cb48861461018a578063305a67a8146101c25780633ccfd60b146101e4575b600080fd5b34801561012557600080fd5b50610139610134366004611acc565b610519565b6040516101819190815181526020808301516001600160a01b031690820152604080830151908201526060808301511515908201526080918201519181019190915260a00190565b60405180910390f35b34801561019657600080fd5b506002546101aa906001600160a01b031681565b6040516001600160a01b039091168152602001610181565b3480156101ce57600080fd5b506101e26101dd366004611acc565b6105b2565b005b3480156101f057600080fd5b506101e2610697565b34801561020557600080fd5b50610262610214366004611acc565b6004602081905260009182526040909120805460018201546002830154600384015494840154600585015460069095015493956001600160a01b039384169592949093909116919060ff1687565b604080519788526001600160a01b0396871660208901528701949094526060860192909252909216608084015260a0830191909152151560c082015260e001610181565b3480156102b257600080fd5b506102c66102c1366004611acc565b61079c565b6040516101819190600060e08201905082518252602083015160018060a01b0380821660208501526040850151604085015260608501516060850152806080860151166080850152505060a083015160a083015260c0830151151560c083015292915050565b34801561033857600080fd5b5061034260065481565b604051908152602001610181565b34801561035c57600080fd5b506101e2610861565b34801561037157600080fd5b506101e2610380366004611ae5565b610873565b34801561039157600080fd5b506001546001600160a01b03166101aa565b3480156103af57600080fd5b506101e26103be366004611acc565b610c1b565b6101e26103d1366004611acc565b610c69565b3480156103e257600080fd5b506101e26103f1366004611acc565b610e44565b34801561040257600080fd5b506103426103e881565b34801561041857600080fd5b506101e2610427366004611b07565b611188565b34801561043857600080fd5b50610487610447366004611acc565b60036020819052600091825260409091208054600182015460028301549383015460049093015491936001600160a01b0390911692909160ff9091169085565b604080519586526001600160a01b0390941660208601529284019190915215156060830152608082015260a001610181565b6101e26104c7366004611acc565b6115f7565b3480156104d857600080fd5b506101e26104e7366004611b48565b611951565b3480156104f857600080fd5b50610342610507366004611b48565b60056020526000908152604090205481565b6105566040518060a001604052806000815260200160006001600160a01b0316815260200160008152602001600015158152602001600081525090565b50600090815260036020818152604092839020835160a0810185528154815260018201546001600160a01b0316928101929092526002810154938201939093529082015460ff1615156060820152600490910154608082015290565b60008181526003602081905260409091209081015460ff1661060d5760405162461bcd60e51b815260206004820152600f60248201526e125d195b481b9bdd081b1a5cdd1959608a1b60448201526064015b60405180910390fd5b60018101546001600160a01b0316331461065a5760405162461bcd60e51b815260206004820152600e60248201526d2737ba103a34329039b2b63632b960911b6044820152606401610604565b60038101805460ff19169055604051339083907f8e25282255ab31897df2b0456bb993ac7f84d376861aefd84901d2d63a7428a290600090a35050565b61069f6119c7565b33600090815260056020526040902054806106f35760405162461bcd60e51b81526020600482015260146024820152734e6f2066756e647320746f20776974686472617760601b6044820152606401610604565b336000818152600560205260408082208290555190919083908381818185875af1925050503d8060008114610744576040519150601f19603f3d011682016040523d82523d6000602084013e610749565b606091505b505090508061078e5760405162461bcd60e51b815260206004820152601160248201527015da5d1a191c985dd85b0819985a5b1959607a1b6044820152606401610604565b505061079a6001600055565b565b6107f06040518060e001604052806000815260200160006001600160a01b03168152602001600081526020016000815260200160006001600160a01b03168152602001600081526020016000151581525090565b50600090815260046020818152604092839020835160e0810185528154815260018201546001600160a01b03908116938201939093526002820154948101949094526003810154606085015291820154166080830152600581015460a08301526006015460ff16151560c082015290565b610869611a20565b61079a6000611a7a565b61087b6119c7565b6002546040516331a9108f60e11b81526004810184905233916001600160a01b031690636352211e90602401602060405180830381865afa1580156108c4573d6000803e3d6000fd5b505050506040513d601f19601f820116820180604052508101906108e89190611b6c565b6001600160a01b03161461092e5760405162461bcd60e51b815260206004820152600d60248201526c2737ba103a34329037bbb732b960991b6044820152606401610604565b60025460405163020604bf60e21b81526004810184905230916001600160a01b03169063081812fc90602401602060405180830381865afa158015610977573d6000803e3d6000fd5b505050506040513d601f19601f8201168201806040525081019061099b9190611b6c565b6001600160a01b03161480610a1d575060025460405163e985e9c560e01b81523360048201523060248201526001600160a01b039091169063e985e9c590604401602060405180830381865afa1580156109f9573d6000803e3d6000fd5b505050506040513d601f19601f82011682018060405250810190610a1d9190611b89565b610a585760405162461bcd60e51b815260206004820152600c60248201526b139bdd08185c1c1c9bdd995960a21b6044820152606401610604565b60008111610aa85760405162461bcd60e51b815260206004820152601c60248201527f5072696365206d7573742062652067726561746572207468616e2030000000006044820152606401610604565b6000828152600360208190526040909120015460ff1615610afc5760405162461bcd60e51b815260206004820152600e60248201526d105b1c9958591e481b1a5cdd195960921b6044820152606401610604565b60008281526004602052604090206006015460ff1615610b535760405162461bcd60e51b815260206004820152601260248201527124ba32b69034b99034b71030bab1ba34b7b760711b6044820152606401610604565b6040805160a081018252838152336020808301828152838501868152600160608601818152426080880190815260008b81526003808852908a902098518955945192880180546001600160a01b0319166001600160a01b0390941693909317909255915160028701559051918501805460ff19169215159290921790915551600490930192909255915183815284917fc93edc6ee14cd6c0c2842099adfa8953b237dbdad304ba28e96dce8a7f2a828c910160405180910390a3610c176001600055565b5050565b610c23611a20565b6103e8811115610c645760405162461bcd60e51b815260206004820152600c60248201526b08ccaca40e8dede40d0d2ced60a31b6044820152606401610604565b600655565b610c716119c7565b6000818152600460205260409020600681015460ff16610cc85760405162461bcd60e51b815260206004820152601260248201527141756374696f6e206e6f742061637469766560701b6044820152606401610604565b80600501544210610d0b5760405162461bcd60e51b815260206004820152600d60248201526c105d58dd1a5bdb88195b991959609a1b6044820152606401610604565b80600301543411610d4c5760405162461bcd60e51b815260206004820152600b60248201526a42696420746f6f206c6f7760a81b6044820152606401610604565b8060020154341015610d975760405162461bcd60e51b815260206004820152601460248201527342656c6f77207374617274696e6720707269636560601b6044820152606401610604565b60048101546001600160a01b031615610de157600381015460048201546001600160a01b031660009081526005602052604081208054909190610ddb908490611bc1565b90915550505b34600382018190556004820180546001600160a01b031916339081179091556040519182529083907f0e54eff26401bf69b81b26f60bd85ef47f5d85275c1d268d84f68d6897431c479060200160405180910390a350610e416001600055565b50565b610e4c6119c7565b6000818152600460205260409020600681015460ff16610ea35760405162461bcd60e51b815260206004820152601260248201527141756374696f6e206e6f742061637469766560701b6044820152606401610604565b8060050154421015610eef5760405162461bcd60e51b815260206004820152601560248201527441756374696f6e207374696c6c206f6e676f696e6760581b6044820152606401610604565b60068101805460ff1916905560048101546001600160a01b03161561117d57600254600382015460405163152a902d60e11b815260048101859052602481019190915260009182916001600160a01b0390911690632a55205a906044016040805180830381865afa158015610f68573d6000803e3d6000fd5b505050506040513d601f19601f82011682018060405250810190610f8c9190611bda565b9150915060006127106006548560030154610fa79190611c08565b610fb19190611c1f565b9050600081838660030154610fc69190611c41565b610fd09190611c41565b6002546001870154600480890154604051632142170760e11b81526001600160a01b039384169281019290925282166024820152604481018a905292935016906342842e0e90606401600060405180830381600087803b15801561103357600080fd5b505af1158015611047573d6000803e3d6000fd5b5050505060008311801561106b575060018501546001600160a01b03858116911614155b156110a3576001600160a01b03841660009081526005602052604081208054859290611098908490611bc1565b909155506110b09050565b6110ad8382611bc1565b90505b60018501546001600160a01b0316600090815260056020526040812080548392906110dc908490611bc1565b90915550829050600560006110f96001546001600160a01b031690565b6001600160a01b03166001600160a01b0316815260200190815260200160002060008282546111289190611bc1565b9091555050600485015460038601546040519081526001600160a01b039091169087907fd2aa34a4fdbbc6dff6a3e56f46e0f3ae2a31d7785ff3487aa5c95c642acea5019060200160405180910390a3505050505b50610e416001600055565b6111906119c7565b6002546040516331a9108f60e11b81526004810185905233916001600160a01b031690636352211e90602401602060405180830381865afa1580156111d9573d6000803e3d6000fd5b505050506040513d601f19601f820116820180604052508101906111fd9190611b6c565b6001600160a01b0316146112435760405162461bcd60e51b815260206004820152600d60248201526c2737ba103a34329037bbb732b960991b6044820152606401610604565b60025460405163020604bf60e21b81526004810185905230916001600160a01b03169063081812fc90602401602060405180830381865afa15801561128c573d6000803e3d6000fd5b505050506040513d601f19601f820116820180604052508101906112b09190611b6c565b6001600160a01b03161480611332575060025460405163e985e9c560e01b81523360048201523060248201526001600160a01b039091169063e985e9c590604401602060405180830381865afa15801561130e573d6000803e3d6000fd5b505050506040513d601f19601f820116820180604052508101906113329190611b89565b61136d5760405162461bcd60e51b815260206004820152600c60248201526b139bdd08185c1c1c9bdd995960a21b6044820152606401610604565b600082116113cb5760405162461bcd60e51b815260206004820152602560248201527f5374617274696e67207072696365206d75737420626520677265617465722074604482015264068616e20360dc1b6064820152608401610604565b610e1081101580156113e0575062093a808111155b61141f5760405162461bcd60e51b815260206004820152601060248201526f24b73b30b634b210323ab930ba34b7b760811b6044820152606401610604565b6000838152600360208190526040909120015460ff16156114825760405162461bcd60e51b815260206004820152601760248201527f4974656d206973206c697374656420666f722073616c650000000000000000006044820152606401610604565b60008381526004602052604090206006015460ff16156114dd5760405162461bcd60e51b815260206004820152601660248201527541756374696f6e20616c72656164792061637469766560501b6044820152606401610604565b6040805160e081018252848152336020820152908101839052600060608201819052608082015260a081016115128342611bc1565b81526001602091820181905260008681526004808452604091829020855181559385015192840180546001600160a01b039485166001600160a01b031991821617909155918501516002850155606085015160038501556080850151908401805491909316911617905560a0820151600582015560c0909101516006909101805491151560ff1990921691909117905533837fc9050d42180a61cb0d9ebb8ad118b62fe6eab12cf12ff752c4a0cc7da9ddf627846115d08542611bc1565b6040805192835260208301919091520160405180910390a36115f26001600055565b505050565b6115ff6119c7565b60008181526003602081905260409091209081015460ff166116575760405162461bcd60e51b81526020600482015260116024820152704974656d206e6f7420666f722073616c6560781b6044820152606401610604565b80600201543410156116a25760405162461bcd60e51b8152602060048201526014602482015273125b9cdd59999a58da595b9d081c185e5b595b9d60621b6044820152606401610604565b600181015460028083015460038401805460ff19169055905460405163152a902d60e11b815260048101869052602481018390526001600160a01b03938416936000928392911690632a55205a906044016040805180830381865afa15801561170f573d6000803e3d6000fd5b505050506040513d601f19601f820116820180604052508101906117339190611bda565b9150915060006127106006548561174a9190611c08565b6117549190611c1f565b90506000816117638487611c41565b61176d9190611c41565b600254604051632142170760e11b81526001600160a01b038981166004830152336024830152604482018c90529293509116906342842e0e90606401600060405180830381600087803b1580156117c357600080fd5b505af11580156117d7573d6000803e3d6000fd5b505050506000831180156117fd5750856001600160a01b0316846001600160a01b031614155b15611835576001600160a01b0384166000908152600560205260408120805485929061182a908490611bc1565b909155506118429050565b61183f8382611bc1565b90505b6001600160a01b0386166000908152600560205260408120805483929061186a908490611bc1565b90915550829050600560006118876001546001600160a01b031690565b6001600160a01b03166001600160a01b0316815260200190815260200160002060008282546118b69190611bc1565b9091555050348510156118f2576118cd8534611c41565b33600090815260056020526040812080549091906118ec908490611bc1565b90915550505b856001600160a01b0316336001600160a01b0316897f04ddd54c6b746e69ba87f862311f7670bd1d7276846778ac81cd38747b27a7468860405161193891815260200190565b60405180910390a450505050505050610e416001600055565b611959611a20565b6001600160a01b0381166119be5760405162461bcd60e51b815260206004820152602660248201527f4f776e61626c653a206e6577206f776e657220697320746865207a65726f206160448201526564647265737360d01b6064820152608401610604565b610e4181611a7a565b600260005403611a195760405162461bcd60e51b815260206004820152601f60248201527f5265656e7472616e637947756172643a207265656e7472616e742063616c6c006044820152606401610604565b6002600055565b6001546001600160a01b0316331461079a5760405162461bcd60e51b815260206004820181905260248201527f4f776e61626c653a2063616c6c6572206973206e6f7420746865206f776e65726044820152606401610604565b600180546001600160a01b038381166001600160a01b0319831681179093556040519116919082907f8be0079c531659141344cd1fd0a4f28419497f9722a3daafe3b4186f6b6457e090600090a35050565b600060208284031215611ade57600080fd5b5035919050565b60008060408385031215611af857600080fd5b50508035926020909101359150565b600080600060608486031215611b1c57600080fd5b505081359360208301359350604090920135919050565b6001600160a01b0381168114610e4157600080fd5b600060208284031215611b5a57600080fd5b8135611b6581611b33565b9392505050565b600060208284031215611b7e57600080fd5b8151611b6581611b33565b600060208284031215611b9b57600080fd5b81518015158114611b6557600080fd5b634e487b7160e01b600052601160045260246000fd5b80820180821115611bd457611bd4611bab565b92915050565b60008060408385031215611bed57600080fd5b8251611bf881611b33565b6020939093015192949293505050565b8082028115828204841417611bd457611bd4611bab565b600082611c3c57634e487b7160e01b600052601260045260246000fd5b500490565b81810381811115611bd457611bd4611bab56fea2646970667358221220c998dd8cbcb48acbc3c701b8a88b3e1b1a3594f6557e5d344387602bfb82970264736f6c63430008130033",
  "linkReferences": {},
  "deployedLinkReferences": {}
}