{
  "_format": "hh-sol-artifact-1",
  "contractName": "MemeNFT",
  "sourceName": "contracts/MemeNFT.sol",
  "abi": [
    {
      "inputs": [],
      "stateMutability": "nonpayable",
      "type": "constructor"
    },
    {
      "anonymous": false,
      "inputs": [
        {
          "indexed": true,
          "internalType": "address",
          "name": "owner",
          "type": "address"
        },
        {
          "indexed": true,
          "internalType": "address",
          "name": "approved",
          "type": "address"
        },
        {
          "indexed": true,
          "internalType": "uint256",
          "name": "tokenId",
          "type": "uint256"
        }
      ],
      "name": "Approval",
      "type": "event"
    },
    {
      "anonymous": false,
      "inputs": [
        {
          "indexed": true,
          "internalType": "address",
          "name": "owner",
          "type": "address"
        },
        {
          "indexed": true,
          "internalType": "address",
          "name": "operator",
          "type": "address"
        },
        {
          "indexed": false,
          "internalType": "bool",
          "name": "approved",
          "type": "bool"
        }
      ],
      "name": "ApprovalForAll",
      "type": "event"
    },
    {
      "anonymous": false,
      "inputs": [
        {
          "indexed": false,
          "internalType": "uint256",
          "name": "_fromTokenId",
          "type": "uint256"
        },
        {
          "indexed": false,
          "internalType": "uint256",
          "name": "_toTokenId",
          "type": "uint256"
        }
      ],
      "name": "BatchMetadataUpdate",
      "type": "event"
    },
    {
      "anonymous": false,
      "inputs": [
        {
          "indexed": true,
          "internalType": "uint256",
          "name": "tokenId",
          "type": "uint256"
        },
        {
          "indexed": true,
          "internalType": "address",
          "name": "liker",
          "type": "address"
        }
      ],
      "name": "MemeLiked",
      "type": "event"
    },
    {
      "anonymous": false,
      "inputs": [
        {
          "indexed": true,
          "internalType": "uint256",
          "name": "tokenId",
          "type": "uint256"
        },
        {
          "indexed": true,
          "internalType": "address",
          "name": "creator",
          "type": "address"
        },
        {
          "indexed": false,
          "internalType": "string",
          "name": "title",
          "type": "string"
        }
      ],
      "name": "MemeMinted",
      "type": "event"
    },
    {
      "anonymous": false,
      "inputs": [
        {
          "indexed": true,
          "internalType": "uint256",
          "name": "newTokenId",
          "type": "uint256"
        },
        {
          "indexed": true,
          "internalType": "uint256",
          "name": "originalTokenId",
          "type": "uint256"
        },
        {
          "indexed": true,
          "internalType": "address",
          "name": "remixer",
          "type": "address"
        }
      ],
      "name": "MemeRemixed",
      "type": "event"
    },
    {
      "anonymous": false,
      "inputs": [
        {
          "indexed": false,
          "internalType": "uint256",
          "name": "_tokenId",
          "type": "uint256"
        }
      ],
      "name": "MetadataUpdate",
      "type": "event"
    },
    {
      "anonymous": false,
      "inputs": [
        {
          "indexed": true,
          "internalType": "address",
          "name": "previousOwner",
          "type": "address"
        },
        {
          "indexed": true,
          "internalType": "address",
          "name": "newOwner",
          "type": "address"
        }
      ],
      "name": "OwnershipTransferred",
      "type": "event"
    },
    {
      "anonymous": false,
      "inputs": [
        {
          "indexed": true,
          "internalType": "address",
          "name": "from",
          "type": "address"
        },
        {
          "indexed": true,
          "internalType": "address",
          "name": "to",
          "type": "address"
        },
        {
          "indexed": true,
          "internalType": "uint256",
          "name": "tokenId",
          "type": "uint256"
        }
      ],
      "name": "Transfer",
      "type": "event"
    },
    {
      "inputs": [
        {
          "internalType": "address",
          "name": "to",
          "type": "address"
        },
        {
          "internalType": "uint256",
          "name": "tokenId",
          "type": "uint256"
        }
      ],
      "name": "approve",
      "outputs": [],
      "stateMutability": "nonpayable",
      "type": "function"
    },
    {
      "inputs": [
        {
          "internalType": "address",
          "name": "owner",
          "type": "address"
        }
      ],
      "name": "balanceOf",
      "outputs": [
        {
          "internalType": "uint256",
          "name": "",
          "type": "uint256"
        }
      ],
      "stateMutability": "view",
      "type": "function"
    },
    {
      "inputs": [
        {
          "internalType": "uint256",
          "name": "",
          "type": "uint256"
        }
      ],
      "name": "creators",
      "outputs": [
        {
          "internalType": "address",
          "name": "",
          "type": "address"
        }
      ],
      "stateMutability": "view",
      "type": "function"
    },
    {
      "inputs": [
        {
          "internalType": "uint256",
          "name": "tokenId",
          "type": "uint256"
        }
      ],
      "name": "getApproved",
      "outputs": [
        {
          "internalType": "address",
          "name": "",
          "type": "address"
        }
      ],
      "stateMutability": "view",
      "type": "function"
    },
    {
      "inputs": [
        {
          "internalType": "uint256",
          "name": "tokenId",
          "type": "uint256"
        }
      ],
      "name": "getLikers",
      "outputs": [
        {
          "internalType": "address[]",
          "name": "",
          "type": "address[]"
        }
      ],
      "stateMutability": "view",
      "type": "function"
    },
    {
      "inputs": [
        {
          "internalType": "uint256",
          "name": "tokenId",
          "type": "uint256"
        }
      ],
      "name": "getMemeData",
      "outputs": [
        {
          "components": [
            {
              "internalType": "string",
              "name": "title",
              "type": "string"
            },
            {
              "internalType": "string",
              "name": "description",
              "type": "string"
            },
            {
              "internalType": "address",
              "name": "creator",
              "type": "address"
            },
            {
              "internalType": "uint256",
              "name": "createdAt",
              "type": "uint256"
            },
            {
              "internalType": "uint256",
              "name": "likes",
              "type": "uint256"
            },
            {
              "internalType": "bool",
              "name": "isRemix",
              "type": "bool"
            },
            {
              "internalType": "uint256",
              "name": "originalTokenId",
              "type": "uint256"
            }
          ],
          "internalType": "struct MemeNFT.MemeData",
          "name": "",
          "type": "tuple"
        }
      ],
      "stateMutability": "view",
      "type": "function"
    },
    {
      "inputs": [
        {
          "internalType": "address",
          "name": "",
          "type": "address"
        },
        {
          "internalType": "uint256",
          "name": "",
          "type": "uint256"
        }
      ],
      "name": "hasLiked",
      "outputs": [
        {
          "internalType": "bool",
          "name": "",
          "type": "bool"
        }
      ],
      "stateMutability": "view",
      "type": "function"
    },
    {
      "inputs": [
        {
          "internalType": "address",
          "name": "owner",
          "type": "address"
        },
        {
          "internalType": "address",
          "name": "operator",
          "type": "address"
        }
      ],
      "name": "isApprovedForAll",
      "outputs": [
        {
          "internalType": "bool",
          "name": "",
          "type": "bool"
        }
      ],
      "stateMutability": "view",
      "type": "function"
    },
    {
      "inputs": [
        {
          "internalType": "uint256",
          "name": "tokenId",
          "type": "uint256"
        }
      ],
      "name": "likeMeme",
      "outputs": [],
      "stateMutability": "nonpayable",
      "type": "function"
    },
    {
      "inputs": [
        {
          "internalType": "uint256",
          "name": "",
          "type": "uint256"
        },
        {
          "internalType": "uint256",
          "name": "",
          "type": "uint256"
        }
      ],
      "name": "likedBy",
      "outputs": [
        {
          "internalType": "address",
          "name": "",
          "type": "address"
        }
      ],
      "stateMutability": "view",
      "type": "function"
    },
    {
      "inputs": [
        {
          "internalType": "uint256",
          "name": "",
          "type": "uint256"
        }
      ],
      "name": "memeData",
      "outputs": [
        {
          "internalType": "string",
          "name": "title",
          "type": "string"
        },
        {
          "internalType": "string",
          "name": "description",
          "type": "string"
        },
        {
          "internalType": "address",
          "name": "creator",
          "type": "address"
        },
        {
          "internalType": "uint256",
          "name": "createdAt",
          "type": "uint256"
        },
        {
          "internalType": "uint256",
          "name": "likes",
          "type": "uint256"
        },
        {
          "internalType": "bool",
          "name": "isRemix",
          "type": "bool"
        },
        {
          "internalType": "uint256",
          "name": "originalTokenId",
          "type": "uint256"
        }
      ],
      "stateMutability": "view",
      "type": "function"
    },
    {
      "inputs": [
        {
          "internalType": "string",
          "name": "title",
          "type": "string"
        },
        {
          "internalType": "string",
          "name": "description",
          "type": "string"
        },
        {
          "internalType": "string",
          "name": "tokenURI",
          "type": "string"
        },
        {
          "internalType": "uint256",
          "name": "_royaltyPercentage",
          "type": "uint256"
        },
        {
          "internalType": "bool",
          "name": "isRemix",
          "type": "bool"
        },
        {
          "internalType": "uint256",
          "name": "originalTokenId",
          "type": "uint256"
        }
      ],
      "name": "mintMeme",
      "outputs": [
        {
          "internalType": "uint256",
          "name": "",
          "type": "uint256"
        }
      ],
      "stateMutability": "nonpayable",
      "type": "function"
    },
    {
      "inputs": [],
      "name": "name",
      "outputs": [
        {
          "internalType": "string",
          "name": "",
          "type": "string"
        }
      ],
      "stateMutability": "view",
      "type": "function"
    },
    {
      "inputs": [],
      "name": "owner",
      "outputs": [
        {
          "internalType": "address",
          "name": "",
          "type": "address"
        }
      ],
      "stateMutability": "view",
      "type": "function"
    },
    {
      "inputs": [
        {
          "internalType": "uint256",
          "name": "tokenId",
          "type": "uint256"
        }
      ],
      "name": "ownerOf",
      "outputs": [
        {
          "internalType": "address",
          "name": "",
          "type": "address"
        }
      ],
      "stateMutability": "view",
      "type": "function"
    },
    {
      "inputs": [],
      "name": "renounceOwnership",
      "outputs": [],
      "stateMutability": "nonpayable",
      "type": "function"
    },
    {
      "inputs": [
        {
          "internalType": "uint256",
          "name": "tokenId",
          "type": "uint256"
        },
        {
          "internalType": "uint256",
          "name": "salePrice",
          "type": "uint256"
        }
      ],
      "name": "royaltyInfo",
      "outputs": [
        {
          "internalType": "address",
          "name": "receiver",
          "type": "address"
        },
        {
          "internalType": "uint256",
          "name": "royaltyAmount",
          "type": "uint256"
        }
      ],
      "stateMutability": "view",
      "type": "function"
    },
    {
      "inputs": [
        {
          "internalType": "uint256",
          "name": "",
          "type": "uint256"
        }
      ],
      "name": "royaltyPercentage",
      "outputs": [
        {
          "internalType": "uint256",
          "name": "",
          "type": "uint256"
        }
      ],
      "stateMutability": "view",
      "type": "function"
    },
    {
      "inputs": [
        {
          "internalType": "address",
          "name": "from",
          "type": "address"
        },
        {
          "internalType": "address",
          "name": "to",
          "type": "address"
        },
        {
          "internalType": "uint256",
          "name": "tokenId",
          "type": "uint256"
        }
      ],
      "name": "safeTransferFrom",
      "outputs": [],
      "stateMutability": "nonpayable",
      "type": "function"
    },
    {
      "inputs": [
        {
          "internalType": "address",
          "name": "from",
          "type": "address"
        },
        {
          "internalType": "address",
          "name": "to",
          "type": "address"
        },
        {
          "internalType": "uint256",
          "name": "tokenId",
          "type": "uint256"
        },
        {
          "internalType": "bytes",
          "name": "data",
          "type": "bytes"
        }
      ],
      "name": "safeTransferFrom",
      "outputs": [],
      "stateMutability": "nonpayable",
      "type": "function"
    },
    {
      "inputs": [
        {
          "internalType": "address",
          "name": "operator",
          "type": "address"
        },
        {
          "internalType": "bool",
          "name": "approved",
          "type": "bool"
        }
      ],
      "name": "setApprovalForAll",
      "outputs": [],
      "stateMutability": "nonpayable",
      "type": "function"
    },
    {
      "inputs": [
        {
          "internalType": "bytes4",
          "name": "interfaceId",
          "type": "bytes4"
        }
      ],
      "name": "supportsInterface",
      "outputs": [
        {
          "internalType": "bool",
          "name": "",
          "type": "bool"
        }
      ],
      "stateMutability": "view",
      "type": "function"
    },
    {
      "inputs": [],
      "name": "symbol",
      "outputs": [
        {
          "internalType": "string",
          "name": "",
          "type": "string"
        }
      ],
      "stateMutability": "view",
      "type": "function"
    },
    {
      "inputs": [
        {
          "internalType": "uint256",
          "name": "tokenId",
          "type": "uint256"
        }
      ],
      "name": "tokenURI",
      "outputs": [
        {
          "internalType": "string",
          "name": "",
          "type": "string"
        }
      ],
      "stateMutability": "view",
      "type": "function"
    },
    {
      "inputs": [],
      "name": "totalSupply",
      "outputs": [
        {
          "internalType": "uint256",
          "name": "",
          "type": "uint256"
        }
      ],
      "stateMutability": "view",
      "type": "function"
    },
    {
      "inputs": [
        {
          "internalType": "address",
          "name": "from",
          "type": "address"
        },
        {
          "internalType": "address",
          "name": "to",
          "type": "address"
        },
        {
          "internalType": "uint256",
          "name": "tokenId",
          "type": "uint256"
        }
      ],
      "name": "transferFrom",
      "outputs": [],
      "stateMutability": "nonpayable",
      "type": "function"
    },
    {
      "inputs": [
        {
          "internalType": "address",
          "name": "newOwner",
          "type": "address"
        }
      ],
      "name": "transferOwnership",
      "outputs": [],
      "stateMutability": "nonpayable",
      "type": "function"
    }
  ],
  "bytecode": "0x60806040523480156200001157600080fd5b506040518060400160405280600c81526020016b13595b59535a5b9d0813919560a21b815250604051806040016040528060048152602001634d454d4560e01b815250816000908162000065919062000197565b50600162000074828262000197565b505050620000916200008b6200009c60201b60201c565b620000a0565b600160085562000263565b3390565b600780546001600160a01b038381166001600160a01b0319831681179093556040519116919082907f8be0079c531659141344cd1fd0a4f28419497f9722a3daafe3b4186f6b6457e090600090a35050565b634e487b7160e01b600052604160045260246000fd5b600181811c908216806200011d57607f821691505b6020821081036200013e57634e487b7160e01b600052602260045260246000fd5b50919050565b601f8211156200019257600081815260208120601f850160051c810160208610156200016d5750805b601f850160051c820191505b818110156200018e5782815560010162000179565b5050505b505050565b81516001600160401b03811115620001b357620001b3620000f2565b620001cb81620001c4845462000108565b8462000144565b602080601f831160018114620002035760008415620001ea5750858301515b600019600386901b1c1916600185901b1785556200018e565b600085815260208120601f198616915b82811015620002345788860151825594840194600190910190840162000213565b5085821015620002535787850151600019600388901b60f8161c191681555b5050505050600190811b01905550565b6123b180620002736000396000f3fe608060405234801561001057600080fd5b50600436106101a95760003560e01c80636352211e116100f9578063a22cb46511610097578063c87b56dd11610071578063c87b56dd146103f3578063cd53d08e14610406578063e985e9c51461042f578063f2fde38b1461044257600080fd5b8063a22cb465146103a7578063b88d4fde146103ba578063bd9d6d7f146103cd57600080fd5b806384e278b9116100d357806384e278b91461035b5780638da5cb5b1461037b57806395d89b411461038c5780639c55a70f1461039457600080fd5b80636352211e1461032d57806370a0823114610340578063715018a61461035357600080fd5b80631ff566a9116101665780632a7ca11f116101405780632a7ca11f146102b957806342842e0e146102d95780634c6668a3146102ec57806352fb08f11461031a57600080fd5b80631ff566a91461026157806323b872dd146102745780632a55205a1461028757600080fd5b806301ffc9a7146101ae57806306fdde03146101d6578063081812fc146101eb578063095ea7b314610216578063129260301461022b57806318160ddd14610259575b600080fd5b6101c16101bc366004611b76565b610455565b60405190151581526020015b60405180910390f35b6101de610466565b6040516101cd9190611be3565b6101fe6101f9366004611bf6565b6104f8565b6040516001600160a01b0390911681526020016101cd565b610229610224366004611c2b565b61051f565b005b61024b610239366004611bf6565b600b6020526000908152604090205481565b6040519081526020016101cd565b61024b610639565b6101fe61026f366004611c55565b610649565b610229610282366004611c77565b610681565b61029a610295366004611c55565b6106b2565b604080516001600160a01b0390931683526020830191909152016101cd565b6102cc6102c7366004611bf6565b610723565b6040516101cd9190611cb3565b6102296102e7366004611c77565b610916565b6101c16102fa366004611c2b565b600e60209081526000928352604080842090915290825290205460ff1681565b61024b610328366004611df2565b610931565b6101fe61033b366004611bf6565b610b2a565b61024b61034e366004611e9d565b610b8a565b610229610c10565b61036e610369366004611bf6565b610c24565b6040516101cd9190611eb8565b6007546001600160a01b03166101fe565b6101de610cb5565b6102296103a2366004611bf6565b610cc4565b6102296103b5366004611f05565b610df0565b6102296103c8366004611f2f565b610dff565b6103e06103db366004611bf6565b610e37565b6040516101cd9796959493929190611fab565b6101de610401366004611bf6565b610f90565b6101fe610414366004611bf6565b600a602052600090815260409020546001600160a01b031681565b6101c161043d366004612006565b610f9b565b610229610450366004611e9d565b610fc9565b600061046082611042565b92915050565b60606000805461047590612030565b80601f01602080910402602001604051908101604052809291908181526020018280546104a190612030565b80156104ee5780601f106104c3576101008083540402835291602001916104ee565b820191906000526020600020905b8154815290600101906020018083116104d157829003601f168201915b5050505050905090565b600061050382611067565b506000908152600460205260409020546001600160a01b031690565b600061052a82610b2a565b9050806001600160a01b0316836001600160a01b03160361059c5760405162461bcd60e51b815260206004820152602160248201527f4552433732313a20617070726f76616c20746f2063757272656e74206f776e656044820152603960f91b60648201526084015b60405180910390fd5b336001600160a01b03821614806105b857506105b88133610f9b565b61062a5760405162461bcd60e51b815260206004820152603d60248201527f4552433732313a20617070726f76652063616c6c6572206973206e6f7420746f60448201527f6b656e206f776e6572206f7220617070726f76656420666f7220616c6c0000006064820152608401610593565b61063483836110b7565b505050565b600061064460095490565b905090565b600d602052816000526040600020818154811061066557600080fd5b6000918252602090912001546001600160a01b03169150829050565b61068b3382611125565b6106a75760405162461bcd60e51b81526004016105939061206a565b610634838383611184565b6000806106be846112e8565b6106da5760405162461bcd60e51b8152600401610593906120b7565b6000848152600a6020908152604080832054600b909252909120546001600160a01b0390911692506127109061071090856120fb565b61071a9190612112565b90509250929050565b61076e6040518060e00160405280606081526020016060815260200160006001600160a01b031681526020016000815260200160008152602001600015158152602001600081525090565b610777826112e8565b6107935760405162461bcd60e51b8152600401610593906120b7565b6000828152600c602052604090819020815160e081019092528054829082906107bb90612030565b80601f01602080910402602001604051908101604052809291908181526020018280546107e790612030565b80156108345780601f1061080957610100808354040283529160200191610834565b820191906000526020600020905b81548152906001019060200180831161081757829003601f168201915b5050505050815260200160018201805461084d90612030565b80601f016020809104026020016040519081016040528092919081815260200182805461087990612030565b80156108c65780601f1061089b576101008083540402835291602001916108c6565b820191906000526020600020905b8154815290600101906020018083116108a957829003601f168201915b505050918352505060028201546001600160a01b031660208201526003820154604082015260048201546060820152600582015460ff161515608082015260069091015460a09091015292915050565b61063483838360405180602001604052806000815250610dff565b60006103e88411156109855760405162461bcd60e51b815260206004820152601960248201527f526f79616c74792063616e6e6f742065786365656420313025000000000000006044820152606401610593565b600061099060095490565b90506109a0600980546001019055565b6109aa3382611305565b6109b4818761131f565b6000818152600a6020908152604080832080546001600160a01b03191633908117909155600b8352818420899055815160e0810183528c81528084018c9052808301919091524260608201526080810184905287151560a082015260c08101879052848452600c90925290912081518190610a2f9082612182565b5060208201516001820190610a449082612182565b506040828101516002830180546001600160a01b0319166001600160a01b03909216919091179055606083015160038301556080830151600483015560a083015160058301805460ff191691151591909117905560c09092015160069091015551339082907f38925687bd17bf99f21997ace6e7a843aef466eee7904dd6e90512dca4613c3090610ad6908c90611be3565b60405180910390a3838015610aea57508083105b15610b1f576040513390849083907fa40cfb5051b7ad6fe912c39a7115273b37c287f2f2c3ec19231725e30859a28e90600090a45b979650505050505050565b6000818152600260205260408120546001600160a01b0316806104605760405162461bcd60e51b8152602060048201526018602482015277115490cdcc8c4e881a5b9d985b1a59081d1bdad95b88125160421b6044820152606401610593565b60006001600160a01b038216610bf45760405162461bcd60e51b815260206004820152602960248201527f4552433732313a2061646472657373207a65726f206973206e6f7420612076616044820152683634b21037bbb732b960b91b6064820152608401610593565b506001600160a01b031660009081526003602052604090205490565b610c186113db565b610c226000611435565b565b6060610c2f826112e8565b610c4b5760405162461bcd60e51b8152600401610593906120b7565b6000828152600d602090815260409182902080548351818402810184019094528084529091830182828015610ca957602002820191906000526020600020905b81546001600160a01b03168152600190910190602001808311610c8b575b50505050509050919050565b60606001805461047590612030565b610ccd816112e8565b610ce95760405162461bcd60e51b8152600401610593906120b7565b336000908152600e6020908152604080832084845290915290205460ff1615610d545760405162461bcd60e51b815260206004820152601760248201527f416c7265616479206c696b65642074686973206d656d650000000000000000006044820152606401610593565b336000818152600e602090815260408083208584528252808320805460ff19166001908117909155600d83528184208054918201815584528284200180546001600160a01b031916909417909355838252600c9052908120600401805491610dbb83612242565b9091555050604051339082907ff8b927cfb2e75ff098dbf5a74342eb61f3048e1361979d572d4387e58579d41190600090a350565b610dfb338383611487565b5050565b610e093383611125565b610e255760405162461bcd60e51b81526004016105939061206a565b610e3184848484611555565b50505050565b600c60205260009081526040902080548190610e5290612030565b80601f0160208091040260200160405190810160405280929190818152602001828054610e7e90612030565b8015610ecb5780601f10610ea057610100808354040283529160200191610ecb565b820191906000526020600020905b815481529060010190602001808311610eae57829003601f168201915b505050505090806001018054610ee090612030565b80601f0160208091040260200160405190810160405280929190818152602001828054610f0c90612030565b8015610f595780601f10610f2e57610100808354040283529160200191610f59565b820191906000526020600020905b815481529060010190602001808311610f3c57829003601f168201915b50505050600283015460038401546004850154600586015460069096015494956001600160a01b03909316949193509160ff169087565b606061046082611588565b6001600160a01b03918216600090815260056020908152604080832093909416825291909152205460ff1690565b610fd16113db565b6001600160a01b0381166110365760405162461bcd60e51b815260206004820152602660248201527f4f776e61626c653a206e6577206f776e657220697320746865207a65726f206160448201526564647265737360d01b6064820152608401610593565b61103f81611435565b50565b60006001600160e01b03198216632483248360e11b1480610460575061046082611690565b611070816112e8565b61103f5760405162461bcd60e51b8152602060048201526018602482015277115490cdcc8c4e881a5b9d985b1a59081d1bdad95b88125160421b6044820152606401610593565b600081815260046020526040902080546001600160a01b0319166001600160a01b03841690811790915581906110ec82610b2a565b6001600160a01b03167f8c5be1e5ebec7d5bd14f71427d1e84f3dd0314c0f7b2291e5b200ac8c7c3b92560405160405180910390a45050565b60008061113183610b2a565b9050806001600160a01b0316846001600160a01b0316148061115857506111588185610f9b565b8061117c5750836001600160a01b0316611171846104f8565b6001600160a01b0316145b949350505050565b826001600160a01b031661119782610b2a565b6001600160a01b0316146111bd5760405162461bcd60e51b81526004016105939061225b565b6001600160a01b03821661121f5760405162461bcd60e51b8152602060048201526024808201527f4552433732313a207472616e7366657220746f20746865207a65726f206164646044820152637265737360e01b6064820152608401610593565b826001600160a01b031661123282610b2a565b6001600160a01b0316146112585760405162461bcd60e51b81526004016105939061225b565b600081815260046020908152604080832080546001600160a01b03199081169091556001600160a01b0387811680865260038552838620805460001901905590871680865283862080546001019055868652600290945282852080549092168417909155905184937fddf252ad1be2c89b69c2b068fc378daa952ba7f163c4a11628f55a4df523b3ef91a4505050565b6000908152600260205260409020546001600160a01b0316151590565b610dfb8282604051806020016040528060008152506116e0565b611328826112e8565b61138b5760405162461bcd60e51b815260206004820152602e60248201527f45524337323155524953746f726167653a2055524920736574206f66206e6f6e60448201526d32bc34b9ba32b73a103a37b5b2b760911b6064820152608401610593565b60008281526006602052604090206113a38282612182565b506040518281527ff8e1a15aba9398e019f0b49df1a4fde98ee17ae345cb5f6b5e2c27f5033e8ce79060200160405180910390a15050565b6007546001600160a01b03163314610c225760405162461bcd60e51b815260206004820181905260248201527f4f776e61626c653a2063616c6c6572206973206e6f7420746865206f776e65726044820152606401610593565b600780546001600160a01b038381166001600160a01b0319831681179093556040519116919082907f8be0079c531659141344cd1fd0a4f28419497f9722a3daafe3b4186f6b6457e090600090a35050565b816001600160a01b0316836001600160a01b0316036114e85760405162461bcd60e51b815260206004820152601960248201527f4552433732313a20617070726f766520746f2063616c6c6572000000000000006044820152606401610593565b6001600160a01b03838116600081815260056020908152604080832094871680845294825291829020805460ff191686151590811790915591519182527f17307eab39ab6107e8899845ad3d59bd9653f200f220920489ca2b5937696c31910160405180910390a3505050565b611560848484611184565b61156c84848484611713565b610e315760405162461bcd60e51b8152600401610593906122a0565b606061159382611067565b600082815260066020526040812080546115ac90612030565b80601f01602080910402602001604051908101604052809291908181526020018280546115d890612030565b80156116255780601f106115fa57610100808354040283529160200191611625565b820191906000526020600020905b81548152906001019060200180831161160857829003601f168201915b50505050509050600061164360408051602081019091526000815290565b90508051600003611655575092915050565b81511561168757808260405160200161166f9291906122f2565b60405160208183030381529060405292505050919050565b61117c84611814565b60006001600160e01b031982166380ac58cd60e01b14806116c157506001600160e01b03198216635b5e139f60e01b145b8061046057506301ffc9a760e01b6001600160e01b0319831614610460565b6116ea8383611888565b6116f76000848484611713565b6106345760405162461bcd60e51b8152600401610593906122a0565b60006001600160a01b0384163b1561180957604051630a85bd0160e11b81526001600160a01b0385169063150b7a0290611757903390899088908890600401612321565b6020604051808303816000875af1925050508015611792575060408051601f3d908101601f1916820190925261178f9181019061235e565b60015b6117ef573d8080156117c0576040519150601f19603f3d011682016040523d82523d6000602084013e6117c5565b606091505b5080516000036117e75760405162461bcd60e51b8152600401610593906122a0565b805181602001fd5b6001600160e01b031916630a85bd0160e11b14905061117c565b506001949350505050565b606061181f82611067565b600061183660408051602081019091526000815290565b905060008151116118565760405180602001604052806000815250611881565b80611860846119f5565b6040516020016118719291906122f2565b6040516020818303038152906040525b9392505050565b6001600160a01b0382166118de5760405162461bcd60e51b815260206004820181905260248201527f4552433732313a206d696e7420746f20746865207a65726f20616464726573736044820152606401610593565b6118e7816112e8565b156119345760405162461bcd60e51b815260206004820152601c60248201527f4552433732313a20746f6b656e20616c7265616479206d696e746564000000006044820152606401610593565b61193d816112e8565b1561198a5760405162461bcd60e51b815260206004820152601c60248201527f4552433732313a20746f6b656e20616c7265616479206d696e746564000000006044820152606401610593565b6001600160a01b038216600081815260036020908152604080832080546001019055848352600290915280822080546001600160a01b0319168417905551839291907fddf252ad1be2c89b69c2b068fc378daa952ba7f163c4a11628f55a4df523b3ef908290a45050565b60606000611a0283611a88565b600101905060008167ffffffffffffffff811115611a2257611a22611d36565b6040519080825280601f01601f191660200182016040528015611a4c576020820181803683370190505b5090508181016020015b600019016f181899199a1a9b1b9c1cb0b131b232b360811b600a86061a8153600a8504945084611a5657509392505050565b60008072184f03e93ff9f4daa797ed6e38ed64bf6a1f0160401b8310611ac75772184f03e93ff9f4daa797ed6e38ed64bf6a1f0160401b830492506040015b6d04ee2d6d415b85acef81000000008310611af3576d04ee2d6d415b85acef8100000000830492506020015b662386f26fc100008310611b1157662386f26fc10000830492506010015b6305f5e1008310611b29576305f5e100830492506008015b6127108310611b3d57612710830492506004015b60648310611b4f576064830492506002015b600a83106104605760010192915050565b6001600160e01b03198116811461103f57600080fd5b600060208284031215611b8857600080fd5b813561188181611b60565b60005b83811015611bae578181015183820152602001611b96565b50506000910152565b60008151808452611bcf816020860160208601611b93565b601f01601f19169290920160200192915050565b6020815260006118816020830184611bb7565b600060208284031215611c0857600080fd5b5035919050565b80356001600160a01b0381168114611c2657600080fd5b919050565b60008060408385031215611c3e57600080fd5b611c4783611c0f565b946020939093013593505050565b60008060408385031215611c6857600080fd5b50508035926020909101359150565b600080600060608486031215611c8c57600080fd5b611c9584611c0f565b9250611ca360208501611c0f565b9150604084013590509250925092565b602081526000825160e06020840152611cd0610100840182611bb7565b90506020840151601f19848303016040850152611ced8282611bb7565b91505060018060a01b03604085015116606084015260608401516080840152608084015160a084015260a0840151151560c084015260c084015160e08401528091505092915050565b634e487b7160e01b600052604160045260246000fd5b600067ffffffffffffffff80841115611d6757611d67611d36565b604051601f8501601f19908116603f01168101908282118183101715611d8f57611d8f611d36565b81604052809350858152868686011115611da857600080fd5b858560208301376000602087830101525050509392505050565b600082601f830112611dd357600080fd5b61188183833560208501611d4c565b80358015158114611c2657600080fd5b60008060008060008060c08789031215611e0b57600080fd5b863567ffffffffffffffff80821115611e2357600080fd5b611e2f8a838b01611dc2565b97506020890135915080821115611e4557600080fd5b611e518a838b01611dc2565b96506040890135915080821115611e6757600080fd5b50611e7489828a01611dc2565b94505060608701359250611e8a60808801611de2565b915060a087013590509295509295509295565b600060208284031215611eaf57600080fd5b61188182611c0f565b6020808252825182820181905260009190848201906040850190845b81811015611ef95783516001600160a01b031683529284019291840191600101611ed4565b50909695505050505050565b60008060408385031215611f1857600080fd5b611f2183611c0f565b915061071a60208401611de2565b60008060008060808587031215611f4557600080fd5b611f4e85611c0f565b9350611f5c60208601611c0f565b925060408501359150606085013567ffffffffffffffff811115611f7f57600080fd5b8501601f81018713611f9057600080fd5b611f9f87823560208401611d4c565b91505092959194509250565b60e081526000611fbe60e083018a611bb7565b8281036020840152611fd0818a611bb7565b6001600160a01b03989098166040840152505060608101949094526080840192909252151560a083015260c09091015292915050565b6000806040838503121561201957600080fd5b61202283611c0f565b915061071a60208401611c0f565b600181811c9082168061204457607f821691505b60208210810361206457634e487b7160e01b600052602260045260246000fd5b50919050565b6020808252602d908201527f4552433732313a2063616c6c6572206973206e6f7420746f6b656e206f776e6560408201526c1c881bdc88185c1c1c9bdd9959609a1b606082015260800190565b602080825260149082015273151bdad95b88191bd95cc81b9bdd08195e1a5cdd60621b604082015260600190565b634e487b7160e01b600052601160045260246000fd5b8082028115828204841417610460576104606120e5565b60008261212f57634e487b7160e01b600052601260045260246000fd5b500490565b601f82111561063457600081815260208120601f850160051c8101602086101561215b5750805b601f850160051c820191505b8181101561217a57828155600101612167565b505050505050565b815167ffffffffffffffff81111561219c5761219c611d36565b6121b0816121aa8454612030565b84612134565b602080601f8311600181146121e557600084156121cd5750858301515b600019600386901b1c1916600185901b17855561217a565b600085815260208120601f198616915b82811015612214578886015182559484019460019091019084016121f5565b50858210156122325787850151600019600388901b60f8161c191681555b5050505050600190811b01905550565b600060018201612254576122546120e5565b5060010190565b60208082526025908201527f4552433732313a207472616e736665722066726f6d20696e636f72726563742060408201526437bbb732b960d91b606082015260800190565b60208082526032908201527f4552433732313a207472616e7366657220746f206e6f6e20455243373231526560408201527131b2b4bb32b91034b6b83632b6b2b73a32b960711b606082015260800190565b60008351612304818460208801611b93565b835190830190612318818360208801611b93565b01949350505050565b6001600160a01b038581168252841660208201526040810183905260806060820181905260009061235490830184611bb7565b9695505050505050565b60006020828403121561237057600080fd5b815161188181611b6056fea26469706673582212209a29a3ca090619a1d66019c999ea0c0b8c438a42ea464174a07d9cf6c3ac326064736f6c63430008130033",
  "linkReferences": {},
  "deployedLinkReferences": {}
}